{
  "contractName": "Ticketchain",
  "abi": [
    {
      "constant": true,
      "inputs": [],
      "name": "getTicketsForSale",
      "outputs": [
        {
          "name": "",
          "type": "uint256[]"
        }
      ],
      "payable": false,
      "stateMutability": "view",
      "type": "function"
    },
    {
      "constant": false,
      "inputs": [],
      "name": "kill",
      "outputs": [],
      "payable": false,
      "stateMutability": "nonpayable",
      "type": "function"
    },
    {
      "constant": true,
      "inputs": [
        {
          "name": "",
          "type": "uint256"
        }
      ],
      "name": "tickets",
      "outputs": [
        {
          "name": "id",
          "type": "uint256"
        },
        {
          "name": "seller",
          "type": "address"
        },
        {
          "name": "buyer",
          "type": "address"
        },
        {
          "name": "bandName",
          "type": "string"
        },
        {
          "name": "venue",
          "type": "string"
        },
        {
          "name": "price",
          "type": "uint256"
        }
      ],
      "payable": false,
      "stateMutability": "view",
      "type": "function"
    },
    {
      "constant": false,
      "inputs": [
        {
          "name": "_bandName",
          "type": "string"
        },
        {
          "name": "_venue",
          "type": "string"
        },
        {
          "name": "_price",
          "type": "uint256"
        }
      ],
      "name": "sellTicket",
      "outputs": [],
      "payable": false,
      "stateMutability": "nonpayable",
      "type": "function"
    },
    {
      "constant": false,
      "inputs": [
        {
          "name": "_id",
          "type": "uint256"
        }
      ],
      "name": "buyTicket",
      "outputs": [],
      "payable": true,
      "stateMutability": "payable",
      "type": "function"
    },
    {
      "constant": true,
      "inputs": [],
      "name": "getNumberOfTickets",
      "outputs": [
        {
          "name": "",
          "type": "uint256"
        }
      ],
      "payable": false,
      "stateMutability": "view",
      "type": "function"
    },
    {
      "anonymous": false,
      "inputs": [
        {
          "indexed": true,
          "name": "_id",
          "type": "uint256"
        },
        {
          "indexed": true,
          "name": "_seller",
          "type": "address"
        },
        {
          "indexed": false,
          "name": "_bandName",
          "type": "string"
        },
        {
          "indexed": false,
          "name": "_venue",
          "type": "string"
        },
        {
          "indexed": false,
          "name": "_price",
          "type": "uint256"
        }
      ],
      "name": "sellTicketEvent",
      "type": "event"
    },
    {
      "anonymous": false,
      "inputs": [
        {
          "indexed": true,
          "name": "_id",
          "type": "uint256"
        },
        {
          "indexed": true,
          "name": "_seller",
          "type": "address"
        },
        {
          "indexed": true,
          "name": "_buyer",
          "type": "address"
        },
        {
          "indexed": false,
          "name": "_bandName",
          "type": "string"
        },
        {
          "indexed": false,
          "name": "_venue",
          "type": "string"
        },
        {
          "indexed": false,
          "name": "_price",
          "type": "uint256"
        }
      ],
      "name": "buyTicketEvent",
      "type": "event"
    }
  ],
  "bytecode": "0x6060604052336000806101000a81548173ffffffffffffffffffffffffffffffffffffffff021916908373ffffffffffffffffffffffffffffffffffffffff160217905550610d40806100536000396000f300606060405260043610610078576000357c0100000000000000000000000000000000000000000000000000000000900463ffffffff16806335fe12d81461007d57806341c0e1b5146100e757806350b44712146100fc578063574af781146102b257806367dd74ca1461035b5780639582260a14610373575b600080fd5b341561008857600080fd5b61009061039c565b6040518080602001828103825283818151815260200191508051906020019060200280838360005b838110156100d35780820151818401526020810190506100b8565b505050509050019250505060405180910390f35b34156100f257600080fd5b6100fa61053a565b005b341561010757600080fd5b61011d60048080359060200190919050506105cf565b604051808781526020018673ffffffffffffffffffffffffffffffffffffffff1673ffffffffffffffffffffffffffffffffffffffff1681526020018573ffffffffffffffffffffffffffffffffffffffff1673ffffffffffffffffffffffffffffffffffffffff168152602001806020018060200184815260200183810383528681815460018160011615610100020316600290048152602001915080546001816001161561010002031660029004801561021a5780601f106101ef5761010080835404028352916020019161021a565b820191906000526020600020905b8154815290600101906020018083116101fd57829003601f168201915b505083810382528581815460018160011615610100020316600290048152602001915080546001816001161561010002031660029004801561029d5780601f106102725761010080835404028352916020019161029d565b820191906000526020600020905b81548152906001019060200180831161028057829003601f168201915b50509850505050505050505060405180910390f35b34156102bd57600080fd5b610359600480803590602001908201803590602001908080601f0160208091040260200160405190810160405280939291908181526020018383808284378201915050505050509190803590602001908201803590602001908080601f01602080910402602001604051908101604052809392919081815260200183838082843782019150505050505091908035906020019091905050610649565b005b61037160048080359060200190919050506108dc565b005b341561037e57600080fd5b610386610c51565b6040518082815260200191505060405180910390f35b6103a4610c5b565b6103ac610c5b565b6000806103b7610c5b565b60008060025414156103ea5760006040518059106103d25750595b90808252806020026020018201604052509550610532565b6002546040518059106103fa5750595b9080825280602002602001820160405250945060009350600192505b600254831115156104bf5760006001600085815260200190815260200160002060020160009054906101000a900473ffffffffffffffffffffffffffffffffffffffff1673ffffffffffffffffffffffffffffffffffffffff1614156104b2576001600084815260200190815260200160002060000154858581518110151561049b57fe5b906020019060200201818152505083806001019450505b8280600101935050610416565b836040518059106104cd5750595b90808252806020026020018201604052509150600090505b8381101561052e5784818151811015156104fb57fe5b90602001906020020151828281518110151561051357fe5b906020019060200201818152505080806001019150506104e5565b8195505b505050505090565b6000809054906101000a900473ffffffffffffffffffffffffffffffffffffffff1673ffffffffffffffffffffffffffffffffffffffff163373ffffffffffffffffffffffffffffffffffffffff1614151561059557600080fd5b6000809054906101000a900473ffffffffffffffffffffffffffffffffffffffff1673ffffffffffffffffffffffffffffffffffffffff16ff5b60016020528060005260406000206000915090508060000154908060010160009054906101000a900473ffffffffffffffffffffffffffffffffffffffff16908060020160009054906101000a900473ffffffffffffffffffffffffffffffffffffffff1690806003019080600401908060050154905086565b60026000815480929190600101919050555060c06040519081016040528060025481526020013373ffffffffffffffffffffffffffffffffffffffff168152602001600073ffffffffffffffffffffffffffffffffffffffff168152602001848152602001838152602001828152506001600060025481526020019081526020016000206000820151816000015560208201518160010160006101000a81548173ffffffffffffffffffffffffffffffffffffffff021916908373ffffffffffffffffffffffffffffffffffffffff16021790555060408201518160020160006101000a81548173ffffffffffffffffffffffffffffffffffffffff021916908373ffffffffffffffffffffffffffffffffffffffff1602179055506060820151816003019080519060200190610781929190610c6f565b50608082015181600401908051906020019061079e929190610c6f565b5060a082015181600501559050503373ffffffffffffffffffffffffffffffffffffffff166002547f9d7cb51d91ee0355915f5dc371bff24e0ba766734709e94fa6f0a61e91856354858585604051808060200180602001848152602001838103835286818151815260200191508051906020019080838360005b83811015610834578082015181840152602081019050610819565b50505050905090810190601f1680156108615780820380516001836020036101000a031916815260200191505b50838103825285818151815260200191508051906020019080838360005b8381101561089a57808201518184015260208101905061087f565b50505050905090810190601f1680156108c75780820380516001836020036101000a031916815260200191505b509550505050505060405180910390a3505050565b6000806002541115156108ee57600080fd5b60008211801561090057506002548211155b151561090b57600080fd5b60016000838152602001908152602001600020905060008160020160009054906101000a900473ffffffffffffffffffffffffffffffffffffffff1673ffffffffffffffffffffffffffffffffffffffff1614151561096957600080fd5b3373ffffffffffffffffffffffffffffffffffffffff168160010160009054906101000a900473ffffffffffffffffffffffffffffffffffffffff1673ffffffffffffffffffffffffffffffffffffffff16141515156109c857600080fd5b3481600501541415156109da57600080fd5b338160020160006101000a81548173ffffffffffffffffffffffffffffffffffffffff021916908373ffffffffffffffffffffffffffffffffffffffff1602179055508060010160009054906101000a900473ffffffffffffffffffffffffffffffffffffffff1673ffffffffffffffffffffffffffffffffffffffff166108fc349081150290604051600060405180830381858888f193505050501515610a8157600080fd5b8060020160009054906101000a900473ffffffffffffffffffffffffffffffffffffffff1673ffffffffffffffffffffffffffffffffffffffff168160010160009054906101000a900473ffffffffffffffffffffffffffffffffffffffff1673ffffffffffffffffffffffffffffffffffffffff16837f12a0f8091cc7f07189cd9521acd98394670bc077ba10a539ce6ce3a4b6d7055384600301856004018660050154604051808060200180602001848152602001838103835286818154600181600116156101000203166002900481526020019150805460018160011615610100020316600290048015610bb95780601f10610b8e57610100808354040283529160200191610bb9565b820191906000526020600020905b815481529060010190602001808311610b9c57829003601f168201915b5050838103825285818154600181600116156101000203166002900481526020019150805460018160011615610100020316600290048015610c3c5780601f10610c1157610100808354040283529160200191610c3c565b820191906000526020600020905b815481529060010190602001808311610c1f57829003601f168201915b50509550505050505060405180910390a45050565b6000600254905090565b602060405190810160405280600081525090565b828054600181600116156101000203166002900490600052602060002090601f016020900481019282601f10610cb057805160ff1916838001178555610cde565b82800160010185558215610cde579182015b82811115610cdd578251825591602001919060010190610cc2565b5b509050610ceb9190610cef565b5090565b610d1191905b80821115610d0d576000816000905550600101610cf5565b5090565b905600a165627a7a72305820c47538b18f9d38a38a28a0aafcebc043bdc62b37c9153e3c5e4be35ec20438170029",
  "source": "pragma solidity ^0.4.11;\n\nimport './Owned.sol';\n\ncontract Ticketchain is Owned {\n  // Custom types\n  struct Ticket {\n    uint id;\n    address seller;\n    address buyer;\n    string bandName;\n    string venue;\n    uint256 price;\n  }\n\n  // String variables\n  mapping(uint => Ticket) public tickets;\n  uint ticketCounter;\n\n  // Events\n  event sellTicketEvent(\n    uint indexed _id,\n    address indexed _seller, \n    string _bandName, \n    string _venue, \n    uint256 _price\n  );\n\n  event buyTicketEvent(\n    uint indexed _id,\n    address indexed _seller, \n    address indexed _buyer, \n    string _bandName, \n    string _venue, \n    uint256 _price\n  );\n\n  // Sell an Ticket\n  function sellTicket(string _bandName, string _venue, uint256 _price) public {\n    // a new ticket\n    ticketCounter++;\n\n    // Store this ticket\n    tickets[ticketCounter] = Ticket(\n      ticketCounter,\n      msg.sender,\n      0x0,\n      _bandName,\n      _venue,\n      _price\n    );\n\n    // Listen for the sell event\n    sellTicketEvent(ticketCounter, msg.sender, _bandName, _venue, _price);\n  }\n\n  // Fetch the number of the tickets in the contract\n  function getNumberOfTickets() public constant returns (uint) {\n    return ticketCounter;\n  }\n\n  // Fetch and return all ticket IDs available for sale\n  function getTicketsForSale() public constant returns (uint[]) {\n    // we check whether there is at lease one ticket\n    if (ticketCounter == 0) {\n      return new uint[](0);\n    }\n\n    // prepare output arrays\n    uint[] memory ticketIds = new uint[](ticketCounter);\n\n    uint numberOfTicketsForSale = 0;\n    // Iterate over tickets\n    for (uint i = 1; i <= ticketCounter; i++) {\n      // keep only the ID for the ticket not already sold\n      if (tickets[i].buyer == 0x0) {\n        ticketIds[numberOfTicketsForSale] = tickets[i].id;\n        numberOfTicketsForSale++;\n      }\n    }\n\n    // copy the ticketIds array into the smaller for sale array\n    uint[] memory forSale = new uint[](numberOfTicketsForSale);\n    for (uint j = 0; j < numberOfTicketsForSale; j++) {\n      forSale[j] = ticketIds[j];\n    }\n    return (forSale);\n  }\n\n  // Buy a ticket\n  function buyTicket(uint _id) payable public {\n    // check whether there is at least one ticket\n    require(ticketCounter > 0);\n    \n    // check whether the ticket exists\n    require(_id > 0 && _id <= ticketCounter);\n\n    // retrieve the ticket\n    Ticket storage ticket = tickets[_id];\n\n    // check the ticket was not already sold\n    require(ticket.buyer == 0x0);\n\n    // check the seller is not the buyer\n    require(ticket.seller != msg.sender);\n\n    // check the value sent is the right price\n    require(ticket.price == msg.value);\n\n    // keep buyers information\n    ticket.buyer = msg.sender;\n\n    // buyer buys the tickets\n    ticket.seller.transfer(msg.value);\n\n    // trigger event\n    buyTicketEvent(_id, ticket.seller, ticket.buyer, ticket.bandName, ticket.venue, ticket.price);\n  }\n\n  // kill the contract\n  function kill() onlyOwner public {\n    selfdestruct(owner);\n  }\n}",
  "sourcePath": "/Users/spencerdezartsmith/Desktop/Programming/five2one/ticketchain/contracts/Ticketchain.sol",
  "compiler": {
    "name": "solc",
    "version": "0.4.18+commit.9cf6e910.Emscripten.clang"
  },
  "schemaVersion": "1.0.1",
  "updatedAt": "2018-02-07T03:19:23.566Z"
}